:100000000C9457000C9474000C9474000C947400BD
:100010000C9474000C948F050C9474000C94740070
:100020000C9474000C9474000C9474000C942910BB
:100030000C9474000C9474000C9474000C94740070
:100040000C9474000C9474000C9474000C94740060
:100050000C94740008000000BE922449123EABAA22
:10006000AA2ABECDCCCC4C3E00000080BEABAAAAD2
:10007000AA3E00000000BF000000803F000000001A
:1000800000084178D3BB4387D1133D190E3CC3BD53
:100090004282AD2B3E68EC8276BED98FE1A93E4C00
:1000A00080EFFFBE01C4FF7F3F000000000011246D
:1000B0001FBECFE5D8E0DEBFCDBF12E0A0E6B0E0C6
:1000C000ECEAFCE202C005900D92A236B107D9F726
:1000D00012E0A2E6B2E001C01D92AC3CB107E1F72C
:1000E0000E94C6120C9454160C940000682F81E6EE
:1000F00040E00E94080186B1876086B9379A08956A
:100100001F93182F0E94760017B93E9A3D98369A91
:10011000349BFECF349A24B135B1C9011F910895A3
:100120008434E9F0853438F48234A1F08334A0F4C7
:10013000813461F40DC0823669F0833618F481365B
:1001400029F406C0833641F0843649F08FEF0895D4
:100150006ABB03C067BB01C064BB81E0089561BB9B
:1001600081E00895843419F1853438F48234B1F093
:100170008334C0F4813461F40DC0823679F0833663
:1001800018F4813629F406C0833661F0843679F09C
:100190008FEF08958BB3862B8BBB07C088B3862B5C
:1001A00088BB03C085B3862B85BB81E0089582B3ED
:1001B000862B82BB81E00895DF93CF930F92CDB75A
:1001C000DEB78434D9F0853438F4823499F083343E
:1001D00098F48134A9F40CC0823661F0833618F4A7
:1001E000813671F405C0833639F0843649F406C08F
:1001F00089B307C086B305C083B303C080B301C011
:100200008FEF8983898190E00F90CF91DF910895DE
:10021000843409F46FC0853440F4823491F183341E
:1002200008F04CC0813471F40FC0823651F183362E
:1002300018F4813639F408C0833609F43FC0843697
:1002400009F458C08FEF0895442321F0413009F09C
:100250006EC00CC02AB381E090E002C0880F991FE5
:100260006A95E2F7809582238ABB5FC02AB381E05A
:1002700090E002C0880F991F6A95E2F7282B2ABBED
:1002800054C0442321F0413009F051C00CC027B3C1
:1002900081E090E002C0880F991F6A95E2F780958F
:1002A000822387BB42C027B381E090E002C0880F61
:1002B000991F6A95E2F7282B27BB37C0442319F012
:1002C0004130A9F50CC024B381E090E002C0880F52
:1002D000991F6A95E2F78095822384BB26C024B3D8
:1002E00081E090E002C0880F991F6A95E2F7282B01
:1002F00024BB1BC0442319F04130C9F40CC021B306
:1003000081E090E002C0880F991F6A95E2F780951E
:10031000822381BB0AC021B381E090E002C0880F34
:10032000991F6A95E2F7282B21BB81E0089581E0AF
:100330000895683008F044C08434B1F1853438F44D
:100340008234E1F0833428F58134D1F50CC0823653
:10035000A9F0833618F4813699F505C08336C9F0C3
:10036000843671F521C02BB381E090E002C0880F84
:10037000991F6A95E2F7282B2BBB20C028B381E098
:1003800090E002C0880F991F6A95E2F7282B28BBDE
:1003900015C025B381E090E002C0880F991F6A95CF
:1003A000E2F7282B25BB0AC022B381E090E002C00F
:1003B000880F991F6A95E2F7282B22BB81E00895E8
:1003C0008FEF0895683008F049C08434D1F1853446
:1003D00040F48234F1F0833440F5813409F03EC0BA
:1003E0000CC08236B1F0833618F48136B9F505C0F9
:1003F0008336D9F0843691F524C02BB381E090E0A8
:1004000002C0880F991F6A95E2F7809582238BBB03
:1004100023C028B381E090E002C0880F991F6A953D
:10042000E2F78095822388BB17C025B381E090E076
:1004300002C0880F991F6A95E2F78095822385BBD9
:100440000BC022B381E090E002C0880F991F6A952B
:10045000E2F78095822382BB81E008958FEF0895B3
:10046000843401F1853438F48234A9F08334B0F453
:10047000813461F40DC0823671F0833618F4813610
:1004800029F406C0833651F0843661F08FEF089569
:100490008FEF8BBB05C08FEF88BB02C08FEF85BB92
:1004A00081E008958FEF82BB81E008958434E9F004
:1004B000853438F48234A1F08334A0F4813461F4BB
:1004C0000DC0823669F0833618F4813629F406C0EF
:1004D000833641F0843649F08FEF08951BBA03C08C
:1004E00018BA01C015BA81E0089512BA81E00895E2
:1004F000683008F044C08434B1F1853438F4823473
:10050000E1F0833428F58134D1F50CC08236A9F0AE
:10051000833618F4813699F505C08336C9F08436E0
:1005200071F521C02BB381E090E002C0880F991FC4
:100530006A95E2F728272BBB20C028B381E090E022
:1005400002C0880F991F6A95E2F7282728BB15C0BB
:1005500025B381E090E002C0880F991F6A95E2F709
:10056000282725BB0AC022B381E090E002C0880F93
:10057000991F6A95E2F7282722BB81E008958FEF43
:100580000895683078F58434D9F0853438F48234AD
:1005900099F0833498F4813429F50CC0823661F0E7
:1005A000833618F48136F1F405C0833639F0843689
:1005B000C9F406C029B305C026B303C023B301C0E4
:1005C00020B381E090E0062E02C0880F991F0A94A4
:1005D000E2F730E08223932302C0959587956A95D0
:1005E000E2F708958FEF0895E199FECF9FBB8EBB90
:1005F0006DBBE29AE19A0895E199FECF9FBB8EBB55
:10060000E09A80ED97E00197F1F78DB30895DF92BE
:10061000EF92FF920F931F93CF93DF937C018B0197
:10062000D42EFB018081882371F0C0E0D0E006C0A9
:10063000F80161918F010E94F4022196CE018E0D86
:100640009F1DDC16A9F7DF91CF911F910F91FF90AD
:10065000EF90DF900895FF920F931F93CF93DF9356
:100660008C01EB01F42E8881882341F409C0C80174
:100670000E94FC0289930F5F1F4FFA94FF20B9F785
:10068000DF91CF911F910F91FF900895CF93DF934A
:10069000C0E0D0E0CE016FEF0E94F402219684E02A
:1006A000C030D807B9F7DF91CF91089583B984E8B6
:1006B00086BF06B607FEFDCF089584EA86BF06B65C
:1006C00007FEFDCF089584E986BF089511B887E439
:1006D00080B984E086BF0895882331F08295880F21
:1006E000880F807C846801C084E886BF06B607FE58
:1006F000FDCF83B108951FBC0895CF92DF92EF9292
:10070000FF921F93CF93DF936C01EB0183E48EBDC7
:1007100085E00E94CF0485E00E942E0508B605FC06
:1007200005C085E00E941E058823C1F385E00E9474
:100730001E05182F85E00E943F0585E00E944B05AD
:10074000E6B4F7B488B7806288BF113011F410E0C6
:1007500026C085E0BE010E94CF0485E00E942E05E0
:1007600008B605FC05C085E00E941E058823C1F37C
:1007700085E00E941E0510E0813009F011E085E05F
:100780000E943F0585E00E944B0586B597B58E19FE
:100790009F09F6019183808388B7806288BF812F8B
:1007A000DF91CF911F91FF90EF90DF90CF90089550
:1007B000CF92DF92EF92FF921F93CF93DF936C0162
:1007C000EB0183E48EBD85E00E94CF0485E00E94AA
:1007D0002E0508B605FC05C085E00E941E0588238D
:1007E000C1F385E00E941E05182F85E00E943F0599
:1007F00085E00E944B05E6B4F7B488B7806288BFF5
:10080000113011F410E028C083E08EBD85E0BE01F8
:100810000E94CF0485E00E942E0508B605FC05C0A5
:1008200085E00E941E058823C1F385E00E941E0515
:1008300010E0813009F011E085E00E943F0585E07D
:100840000E944B0586B597B58E199F09F6019183D5
:10085000808388B7806288BF812FDF91CF911F91FD
:10086000FF90EF90DF90CF900895813091F081302C
:1008700050F08230C1F08330F9F48F9A15BC89E6CC
:1008800085BD14BC0895BB9A13BE8BE683BF12BE10
:1008900008958D9A8FB581688FBD8EB58B608EBDA2
:1008A0001DBC1CBC08958C9A8FB581628FBD8EB51E
:1008B0008B608EBD1DBC1CBC0895613051F0613051
:1008C00030F0623051F0633059F483BD08958CBF2D
:1008D000089590E09BBD8ABD089590E099BD88BDC4
:1008E0000895262F9FEF899FC001112464E670E0D0
:1008F0000E94E515222321F0233019F463BD0895E9
:100900006CBF08958FB9779BFECF8FB10895CF93B9
:10091000DF93EC0187E00E942E0588818FB97799DB
:1009200005C087E00E941E058823C9F387E00E9466
:100930003F0587E00E944B058EB19FB19883881FC9
:100940008827881FDF91CF91089593E69DB9813064
:1009500029F46C9A87B3806B87BB01C0BE9A87E08D
:1009600065E070E00E94CF04089590E0FC01EE0F76
:10097000FF1FE80FF91FDF01119682E692E0AA0F30
:10098000BB1FA80FB91F11961C921E92EE0FFF1FDE
:10099000E80FF91F1182108214821582089590E0E9
:1009A000FC01EE0FFF1FE80FF91FDF01AA0FBB1FAD
:1009B000AE59BD4F8D919C911197892B71F4119671
:1009C0007C936E93EE0FFF1FEC59FD4F1182108246
:1009D00014961C92149715961C92089540E050E0CE
:1009E0009A01220F331F240F351FD901AA0FBB1FF5
:1009F000AE59BD4F15966C9115976130B1F4F90160
:100A0000EE0FFF1FEC59FD4F80819181019691837C
:100A10008083208131818D919C911197281739070E
:100A200021F41182108214966C934F5F5F4F4A300D
:100A30005105B1F608950E94EE04089590E0FC017E
:100A4000EE0FFF1FE80FF91FEE0FFF1FEE59FD4FCE
:100A50008481882311F0148281E0089590E0FC01E4
:100A6000EE0FFF1FE80FF91FEE0FFF1FEE59FD4FAE
:100A700080819181892B11F081E08583089590E038
:100A8000FC01EE0FFF1FE80FF91FEE0FFF1FEE59DD
:100A9000FD4F1582089590E0FC01EE0FFF1FE80F57
:100AA000F91FEE0FFF1FEC59FD4F118210820895C0
:100AB0000E9478058BE195E00E94850580E090E03A
:100AC000FC01EE0FFF1FE80FF91FEE0FFF1FDF0104
:100AD000AC59BD4F11961C921E92EE59FD4F1182DA
:100AE00010821482158201968A30910549F7089583
:100AF00085B5876085BD89E784BD89B7806489BF76
:100B000088B7806488BF7894089590939F028093FB
:100B10009E02089510929F0210929E0208951F92C5
:100B20000F920FB60F9211242F933F934F935F9321
:100B30006F937F938F939F93AF93BF93EF93FF93A5
:100B4000E0919E02F0919F02309709F0099589E7A4
:100B500084BD88B7806488BFFF91EF91BF91AF914A
:100B60009F918F917F916F915F914F913F912F91C5
:100B70000F900FBE0F901F9018955F9BFECF8CB10A
:100B800008955D9BFECF8CB90895FC0180E006C0FE
:100B900090815D9BFECF9CB98F5F31968617C0F325
:100BA000089520E004C05D9BFECFECB92F5FFC01EF
:100BB000E20FF11DE081EE23B1F708955D9BFECFBA
:100BC0008DE08CB95D9BFECF8AE08CB90895CF9201
:100BD000DF92EF92FF920F931F93DF93CF9300D09A
:100BE000CDB7DEB7F82ED62EC42E6AE00E94C5150A
:100BF00090E08E010F5F1F4FB8014AE050E00E9465
:100C00002316C8010E94D1058F2D6AE00E94C515E8
:100C1000892F90E0B8014AE050E00E942316C801F5
:100C20000E94D10580E6E82E80E0F82EC7010E94E0
:100C3000D1058D2D6AE00E94C51590E0B8014AE00B
:100C400050E00E942316C8010E94D1058D2D6AE054
:100C50000E94C515892F90E0B8014AE050E00E943B
:100C60002316C8010E94D105C7010E94D1058C2D11
:100C70006AE00E94C51590E0B8014AE050E00E9489
:100C80002316C8010E94D1058C2D6AE00E94C5156B
:100C9000892F90E0B8014AE050E00E942316C80175
:100CA0000E94D1050F900F90CF91DF911F910F916E
:100CB000FF90EF90DF90CF9008950F931F93DF93F5
:100CC000CF9300D000D000D0CDB7DEB78E010F5F3C
:100CD0001F4F26E0F80111922A95E9F7B8014AE082
:100CE00050E00E94231680E0980104C05D9BFECF77
:100CF000ECB98F5FF901E80FF11DE081EE23B1F748
:100D000026960FB6F894DEBF0FBECDBFCF91DF9110
:100D10001F910F9108950F931F93DF93CF9300D0EE
:100D200000D000D0CDB7DEB78E010F5F1F4F26E099
:100D3000F80111922A95E9F7B8014AE050E00E94C3
:100D4000231682E690E060E10E94C50590E09801DC
:100D50004AE107C05D9BFECFECB9842F8A95F1F77D
:100D60009F5FF901E90FF11DE081EE2399F72696C7
:100D70000FB6F894DEBF0FBECDBFCF91DF911F91AC
:100D80000F9108950F931F93DF93CF9300D000D05E
:100D900000D0CDB7DEB78E010F5F1F4F26E0F80100
:100DA00011922A95E9F7B8014AE050E00E94231613
:100DB00083E790E06FE00E94C50520E0B8013EE2C5
:100DC00040ED57E00CC05D9BFECFECB9213019F42B
:100DD0005D9BFECF3CB9CA010197F1F72F5FFB0184
:100DE000E20FF11DE081EE2371F782E890E063E00D
:100DF0000E94C50526960FB6F894DEBF0FBECDBF84
:100E0000CF91DF911F910F9108951F93182F86E0C6
:100E10000E942E055D9905C086E00E941E0588236C
:100E2000C9F386E00E943F0586E00E944B055D996C
:100E300002C080E002C01CB981E01F910895CF93E9
:100E4000DF93EC0186E00E942E055F9905C086E0E5
:100E50000E941E058823C9F386E00E943F0586E0B4
:100E60000E944B058BB19CB19883881F8827881FEF
:100E7000DF91CF910895CF93DF93EC011AB810BCA6
:100E8000288139814A815B8164E0220F331F441F2E
:100E9000551F6A95D1F760E072E18AE790E00E9401
:100EA000F8152150304040405040BB27A52F942FCB
:100EB000832F80BD29B98F818111579A888581112F
:100EC000569A89858111549A8A858111539A90B5D1
:100ED0008E818295807F892B80BD90B58D81880F12
:100EE000880F880F892B80BD2C81293011F4529AEC
:100EF0000CC0253069F0263019F480B5826807C02F
:100F0000273019F480B5846802C080B5866880BD3A
:100F100086E065E070E00E94CF04DF91CF910895F4
:100F20001F93CF93DF93162FEC0121970BC00E94E4
:100F3000BD05982F898388818D3011F49A3021F076
:100F400011502196112399F7DF91CF911F910895A8
:100F50001F93CF93DF93EC01162F04C00E94BD05B1
:100F6000899311501123D1F7DF91CF911F910895EB
:100F70000E94BD0508950E9405070895EF92FF9213
:100F80001F93CF93DF93EC0110E080E7E82E87E119
:100F9000F82E06C00E9405071F5FC7010197F1F7F1
:100FA000FE01E10FF11D80818823A1F7DF91CF9130
:100FB0001F91FF90EF900895EF92FF921F93CF93B0
:100FC000DF93EC01162F90EAE92E9FE0F92E07C07F
:100FD00089910E9405071150C7010197F1F711236C
:100FE000B9F7DF91CF911F91FF90EF900895DF93B4
:100FF000CF93CDB7DEB72B970FB6F894DEBF0FBEF9
:10100000CDBFDE011196E6E5F2E08BE001900D9296
:101010008150E1F7CE0101960E943B072B960FB657
:10102000F894DEBF0FBECDBFCF91DF91089598B386
:10103000907F982B98BB0895EF92FF920F931F9388
:10104000CF93DF93EC0168EE73E00E94D115182F67
:10105000092F64E670E00E94D115F82EE92E83E096
:10106000C83ED807F0F082E462E00E94E20183E427
:1010700063E00E94990181E465E00E94990181E4A6
:1010800064E00E94990128B3CE0168EE73E00E94EB
:10109000D115207F262B28BB80E197E20197F1F73D
:1010A00003C0C436D105F0F083E463E00E94E2019E
:1010B00082E462E00E94990181E465E00E94990166
:1010C00081E464E00E94990128B3812F902F64E6A7
:1010D00070E00E94D115207F262B28BB80E197E28B
:1010E0000197F1F72A97F0F081E464E00E94E201B1
:1010F00081E465E00E94990182E462E00E94990126
:1011000083E463E00E94990128B38F2D9E2D6AE04D
:1011100070E00E94D115207F262B28BB80E197E24A
:101120000197F1F781E465E00E94E20181E464E067
:101130000E94990183E463E00E94990182E462E0E5
:101140000E94990128B38F2D9E2D6AE070E00E94C5
:10115000D115207F282B28BB80E197E20197F1F77A
:10116000DF91CF911F910F91FF90EF90089582E44E
:1011700060E041E00E94080182E461E041E00E94F9
:10118000080182E462E041E00E94080182E463E039
:1011900041E00E94080183E465E041E00E9408010B
:1011A00083E464E041E00E94080183E462E041E0FE
:1011B0000E94080183E463E041E00E940801089571
:1011C000282F6AE00E94C51596E0899FC00111246E
:1011D000820F0895DF92EF92FF920F931F93DF9398
:1011E000CF9300D0CDB7DEB7F82EE62ED42E6AE02E
:1011F0000E94C51590E08E010F5F1F4FB8014AE0B5
:1012000050E00E942316C8010E948F118F2D6AE0C2
:101210000E94C515892F90E0B8014AE050E00E9475
:101220002316C8010E948F118AE390E00E944611A4
:101230008E2D6AE00E94C51590E0B8014AE050E0AA
:101240000E942316C8010E948F118E2D6AE00E9411
:10125000C515892F90E0B8014AE050E00E9423169E
:10126000C8010E948F118AE390E00E9446118D2DE3
:101270006AE00E94C51590E0B8014AE050E00E9483
:101280002316C8010E948F118D2D6AE00E94C5159A
:10129000892F90E0B8014AE050E00E942316C8016F
:1012A0000E948F110F900F90CF91DF911F910F919E
:1012B000FF90EF90DF900895EF92FF920F931F93AE
:1012C000162F042F0E94E008E82E812F0E94E008CC
:1012D000F82E802F0E94E008182F0E945D0380EDF9
:1012E0000E94560384E00E9456038E2D0E945603EE
:1012F0008F2D0E945603812F0E9456030E94630384
:101300001F910F91FF90EF900895EF92FF920F932E
:101310001F93162F042F0E94E008E82E812F0E94B1
:10132000E008F82E802F0E94E008182F0E945D032D
:1013300080ED0E94560380E00E945603812F0E9498
:1013400056038F2D0E9456038E2D0E9456030E9435
:1013500063031F910F91FF90EF900895AF92BF929A
:10136000CF92DF92EF92FF920F931F937C016B015C
:101370005A010E945D0380ED0E94560384E00E94A2
:1013800056030E9463030E945D0381ED0E94560391
:1013900081E00E946C03182F81E00E946C03082FEB
:1013A00080E00E946C03912F92959F702AEF3FEF8F
:1013B000929F902D1124910FF7019083902F929579
:1013C0009F70929F902D1124900FF6019083982F7B
:1013D00092959F70929F902D1124980FF501908304
:1013E0000E9463031F910F91FF90EF90DF90CF90C9
:1013F000BF90AF900895AF92BF92CF92DF92EF92DD
:10140000FF920F931F935C016B017A010E945D03B1
:1014100080ED0E94560380E00E9456030E94630301
:101420000E945D0381ED0E94560381E00E946C03DF
:10143000182F81E00E946C03082F80E00E946C034B
:10144000912F92959F702AEF3FEF929F902D11243C
:10145000910FF7019083902F92959F70929F902DFE
:101460001124900FF6019083982F92959F70929F70
:10147000902D1124980FF50190830E9463031F9112
:101480000F91FF90EF90DF90CF90BF90AF900895B5
:101490000E9466030E945D0380ED0E94560387E070
:1014A0000E94560380E00E9456030E94630388EC6A
:1014B00090E00197F1F708950F931F93082F162FCF
:1014C0000E945D03812F0E945603802F0E945603C5
:1014D0000E945D03812F81600E94560380E00E947C
:1014E0006C03182F0E946303812F1F910F910895A1
:1014F000FF920F931F93182F062FF42E0E945D0367
:10150000802F0E945603812F0E9456038F2D0E9428
:1015100056030E94630380E395E70197F1F71F915B
:101520000F91FF9008950E9466030895DF92EF9255
:10153000FF920F931F93DF93CF930F92CDB7DEB738
:10154000D82E8B017A0181E0898380E260307807B0
:1015500008F019820E945D038D2D0E945603812F91
:101560000E945603802F0E9456030E945D038D2D1A
:1015700081600E94560380E00E946C03F701808323
:101580000E94630389810F90CF91DF911F910F918A
:10159000FF90EF90DF900895EF92FF920F931F93CB
:1015A000DF93CF930F92CDB7DEB7F82E8B01E42EE9
:1015B00081E0898380E26030780708F019820E9418
:1015C0005D038F2D0E945603812F0E945603802FAA
:1015D0000E9456038E2D0E9456030E94630380E4EE
:1015E0009CE90197F1F789810F90CF91DF911F91CD
:1015F0000F91FF90EF9008950E94660308950F9356
:101600001F930E94F3100E94B51181E061E00E94D7
:101610006E1186E890E00E948F1180E29EE428EC33
:1016200030E0F9013197F1F70197D9F70E94B51130
:1016300081E061E00E946E1180911D0290911E0276
:101640000E948F1180E29EE428EC30E0F90131978E
:10165000F1F70197D9F706C011E00E948310082F17
:10166000882311F410E0F9CF1123B9F781E061E08C
:101670000E946E11802F90E062E00E947E1209307D
:1016800059F70E94B51181E061E00E946E1185E971
:1016900090E00E948F111F910F9108950F931F9357
:1016A000CF93DF930E94B51181E061E00E946E113B
:1016B00080912502909126020E948F1180E29EE483
:1016C00028EC30E0F9013197F1F70197D9F7C0E044
:1016D000D0E008EC10E00E94B51181E061E00E94CA
:1016E0006E1181EA90E00E948F1187E00E948000D5
:1016F00062E00E947E1288E893E1F8013197F1F7E9
:101700000197D9F72196CC30D10529F70E94B51160
:1017100080E29EE428EC30E0F9013197F1F701977F
:10172000D9F782EB90E00E948F1180E197E228ECDC
:1017300030E0F9013197F1F70197D9F7DF91CF91B7
:101740001F910F910895EF92FF920F931F93CF93E4
:10175000DF930E94B7080E94B51181E061E00E940A
:101760006E1180912302909124020E948F1100E05B
:1017700010E0C0E0D0E0EE24FF2406C02196CA317C
:10178000D10510F0095A1B4FC80167E574E00E94AB
:10179000D115892B31F4CA31D10518F07801C0E098
:1017A000D0E0C7010E941C0887E20031180730F31F
:1017B0000E94B5118FEB90E00E948F1180EE9EE2A7
:1017C00028EC30E0F9013197F1F70197D9F7DF9173
:1017D000CF911F910F91FF90EF90089584E467E0FF
:1017E00041E00E94080184E467E00E94E2010E9457
:1017F000B51181E061E00E946E1180911F0290910D
:1018000020020E948F1180E29EE428EC30E0F90172
:101810003197F1F70197D9F784E467E00E949901C5
:1018200080E197E228EC30E0F9013197F1F7019778
:10183000D9F784E467E00E94E2010E94B51181E0DB
:1018400061E00E946E118BEC90E00E948F1180E1AC
:1018500097E228EC30E0F9013197F1F70197D9F7D9
:10186000089584E464E041E00E94080184E465E0B6
:1018700041E00E94080184E466E041E00E94080122
:1018800084E467E041E00E94080184E467E041E00D
:101890000E94080184E464E00E94990184E467E006
:1018A0000E94E20184E465E00E94990184E466E01C
:1018B0000E94990184E467E00E9499010E94B51199
:1018C00081E061E00E946E1180911B0290911C02E8
:1018D0000E948F1182E064E00E946E1185ED90E01D
:1018E0000E948F1180E797E128EC30E0F9013197F1
:1018F000F1F70197D9F784E464E00E94E20184E4FF
:1019000065E00E94E20184E466E00E94E20184E472
:1019100067E00E94E20180E197E228EC30E0F90103
:101920003197F1F70197D9F784E466E00E949901B5
:1019300084E467E00E94990184E464E00E949901D4
:1019400084E465E00E94990180E197E228EC30E0B0
:10195000F9013197F1F70197D9F784E464E00E9427
:10196000E20184E465E00E94E20184E466E00E9412
:10197000E20184E467E00E94E20180E197E228EC62
:1019800030E0F9013197F1F70197D9F784E466E087
:101990000E94990184E467E00E94990184E464E074
:1019A0000E94990184E465E00E94990180E197E238
:1019B00028EC30E0F9013197F1F70197D9F784E489
:1019C00064E00E94E20184E466E00E94E20188E8AB
:1019D00093E128EC30E0F9013197F1F70197D9F75D
:1019E00084E465E00E94E20184E467E00E94E20191
:1019F00088E893E128EC30E0F9013197F1F701979D
:101A0000D9F784E466E00E94990184E464E00E94CE
:101A1000990188E893E128EC30E0F9013197F1F77A
:101A20000197D9F784E467E00E94990184E465E0B6
:101A30000E9499010E94B51180EE90E00E948F11E2
:101A400080E29EE428EC30E0F9013197F1F701974C
:101A5000D9F708950E94031288EE93E028EC30E055
:101A6000F9013197F1F70197D9F70E94B51181E09B
:101A700064E00E946E1180910B0290910C020E9412
:101A80008F1182E063E00E946E1180910D029091AF
:101A90000E020E948F1180E395E728EC30E0F901F7
:101AA0003197F1F70197D9F70E94B5118EEE90E0CA
:101AB0000E948F1182E065E00E946E1180E091E04B
:101AC0000E948F1180E29EE428EC30E0F90131970A
:101AD000F1F70197D9F7089583B7836083BF89B77A
:101AE000816089BF81E082BF789408950E94800060
:101AF0009093A9028093A8028091A0029091A102E4
:101B0000A091A202B091A3020296A11DB11D8093E3
:101B1000A0029093A102A093A202B093A30280918D
:101B2000A0029091A102A091A202B091A3022091E3
:101B3000A4023091A5024091A6025091A702821BF7
:101B4000930B9093B1028093B0022091A802309140
:101B5000A9028091370290913802281739073CF585
:101B60002091B0023091B10280913D0290913E02ED
:101B700065E070E00E94E515CB01880F991F860F84
:101B8000971F821793079CF42091A8023091A90215
:101B900080913502909136022817390744F48091DC
:101BA000A8029091A9029093360280933502209169
:101BB000A8023091A90280913702909138028217D1
:101BC00093079CF42091A8023091A90280913302DE
:101BD000909134028217930744F48091A802909167
:101BE000A90290933402809333028091B0029091C5
:101BF000B1028B3F91050CF4F5C02091A802309101
:101C0000A9028091370290913802821793070CF055
:101C1000E9C08091AA02882309F0E4C02091B002B3
:101C20003091B10280913D0290913E0265E070E0FA
:101C30000E94E515CB01880F991F860F971F821709
:101C400093070CF0CFC081E08093AA0284E465E0A2
:101C50000E94E2018091A0029091A102A091A202B3
:101C6000B091A3022091A4023091A5024091A60256
:101C70005091A702821B930B90933E0280933D02EA
:101C80008091A0029091A102A091A202B091A30222
:101C90008093A4029093A502A093A602B093A702FA
:101CA00080913B02882319F010923B0208958091A5
:101CB0003C028823A1F010923C0220E030E08091A9
:101CC0003D0290913E02F901EE0FFF1FEA54FD4FD5
:101CD000918380832F5F3F4F2A30310581F720E0C9
:101CE00030E0B9016F5F7F4FFB01EE0FFF1FEA5439
:101CF000FD4F80819181F901EE0FFF1FEA54FD4FE6
:101D0000918380832091AC023091AD024091AE026C
:101D10005091AF0280819181AA2797FDA095BA2F9B
:101D2000820F931FA41FB51F8093AC029093AD0246
:101D3000A093AE02B093AF026930710511F09B0120
:101D4000D0CF80913D0290913E029093C902809342
:101D5000C8022091AC023091AD024091AE02509188
:101D6000AF028091C8029091C902AA2797FDA09561
:101D7000BA2F820F931FA41FB51F8093AC029093BC
:101D8000AD02A093AE02B093AF026091AC0270912D
:101D9000AD028091AE029091AF022AE030E040E0C7
:101DA00050E00E94F815C901DA018093AC029093CB
:101DB000AD02A093AE02B093AF022091AC0230917D
:101DC000AD024091AE025091AF0260E67AEE80E043
:101DD00090E00E94F8153093CB022093CA0281E074
:101DE0008093AB022091A8023091A9028091370222
:101DF0009091380228173907D4F58091AA028130D2
:101E0000B1F584E465E00E9499011092AA028091E4
:101E10003302909134022091350230913602821BB8
:101E2000930B90933A0280933902809139029091FA
:101E30003A02209135023091360262E070E00E9451
:101E4000E515260F371F3093380220933702809113
:101E5000370290913802909334028093330280913C
:101E60003702909138029093360280933502809128
:101E7000B0029091B102855C99401CF180E092E043
:101E80009093380280933702909334028093330208
:101E900090933602809335028091A0029091A10226
:101EA000A091A202B091A3028093A4029093A502F4
:101EB000A093A602B093A70281E080933B02809397
:101EC0003C020895AF92BF92CF92DF92EF92FF92C1
:101ED0000F931F9387E00E948000A0E0B0E0BC0158
:101EE000CD010E94341420E030EC4FE754E40E940E
:101EF000A01320E030E44CE955E40E940B157B016F
:101F00008C0120E030E14AE156E40E940B155B01B0
:101F10006C0160E070E48CE995E4A80197010E94EF
:101F20003B139B01AC01C601B5010E94A0137B01CC
:101F30008C012AE939ED43EE54E40E94C21488234F
:101F40007CF0C801B70123EA31E74FEC55E40E9469
:101F5000A0130E94CB142BE13EE141E35DEB68C08E
:101F6000C801B70123E333EA48EB54E40E94C214EA
:101F700088237CF0C801B70122EF3BE148EC55E42F
:101F80000E94A0130E94CB1422EB33E34CE25DEBE2
:101F90004FC0C801B7012AE939E946E954E40E9473
:101FA000C21488237CF0C801B70121E230E34FEB73
:101FB00055E40E94A0130E94CB142EE83DED46E2AA
:101FC0005DEB36C0C801B70126E636E047E754E4CA
:101FD0000E94C21488237CF0C801B70122E838E1CE
:101FE00047EB55E40E94A0130E94CB1424E53EE683
:101FF00042E25DEB1DC0C801B7012DEC3CEE4AE4A6
:1020000054E40E94C21487FF05C060E070E080E0E5
:1020100090E010C0C801B70121E93FE34EEA55E462
:102020000E94A0130E94CB1420E83AEE4DE15DEB34
:102030000E94A01320E030E048EC52E40E940B150F
:102040001F910F91FF90EF90DF90CF90BF90AF90D6
:1020500008951F920F920FB60F9211242F933F9362
:102060004F935F936F937F938F939F93AF93BF93A0
:10207000EF93FF93F89485E00E94760D8091AB0278
:10208000813039F587E00E94620F6093B20270934D
:10209000B3028093B4029093B5026091B202709142
:1020A000B3028091B4029091B5020E940814DC0141
:1020B000CB010E94C2068091CA029091CB020E947D
:1020C0008B068DE00E94C1058AE00E94C105109236
:1020D000AB0288B78E7F88BF81E082BF7894FF9182
:1020E000EF91BF91AF919F918F917F916F915F9190
:1020F0004F913F912F910F900FBE0F901F90189509
:102100000E94031208951F9316B881E465E00E94AF
:10211000E20181E464E00E94990181E463E00E94AD
:10212000990181E460E00E94C102882311F411E06A
:1021300011C081E461E00E94C102882311F414E01F
:1021400009C081E462E00E94C102882311F417E013
:1021500001C010E081E464E00E94E20181E465E0F6
:102160000E94990181E463E00E94990181E460E0AA
:102170000E94C102882311F412E00FC081E461E0E3
:102180000E94C102882311F415E007C081E462E0D7
:102190000E94C102882309F418E081E463E00E94F0
:1021A000E20181E465E00E94990181E464E00E941B
:1021B000990181E460E00E94C102882311F413E0D8
:1021C0000FC081E461E00E94C102882311F416E08F
:1021D00007C081E462E00E94C102882309F419E08B
:1021E000812F1F91089581E460E040E00E94080182
:1021F00081E461E040E00E94080181E462E040E0A7
:102200000E94080181E465E041E00E94080181E448
:1022100064E041E00E94080181E463E041E00E9443
:10222000080181E460E00E94990181E461E00E947C
:10223000990181E462E00E9499010895AE98C798DF
:10224000C698C598C49887FDC79A86FDC69A85FD2D
:10225000C59A84FDC49AAF9A95E09A95F1F7AF9824
:10226000C798C698C598C49883FDC79A82FDC69A38
:1022700081FDC59A80FDC49AAF9A85E08A95F1F7F1
:10228000AF9888E592E00197F1F70895AE9AC79864
:10229000C698C598C49887FDC79A86FDC69A85FDDD
:1022A000C59A84FDC49AAF9A95E09A95F1F7AF98D4
:1022B000C798C698C598C49883FDC79A82FDC69AE8
:1022C00081FDC59A80FDC49AAF9A85E08A95F1F7A1
:1022D000AF9888E592E00197F1F70895DF93CF93E7
:1022E00000D000D0CDB7DEB790E8998390EC9A8308
:1022F00094E99B8394ED9C836150FE01E80FF11DEE
:102300008081860F0E941E1180E49CE90197F1F7FD
:102310000F900F900F900F90CF91DF9108951F9322
:10232000CF93DF93EC0110E003C00E9446111F5FC2
:10233000FE01E10FF11D80818823B9F7DF91CF9174
:102340001F9108950F931F93CF93DF93062FEC01F6
:1023500010E004C089910E9446111F5F1017D0F34E
:10236000DF91CF911F910F91089581E00E941E117E
:1023700085E08A95F1F780E29EE40197F1F70895F0
:102380000F931F93CF93DF938B01883090F4880FC6
:10239000880F880F805C0E941E11C0E0D0E0F80119
:1023A000EC0FFD1F80810E9446112196C830D10597
:1023B000B1F7DF91CF911F910F910895CF93DF93E4
:1023C000EC01888182958F708A3010F0895C01C0A1
:1023D000805D0E94461188818F708A3010F0895C80
:1023E00001C0805D0E944611DF91CF91089588BBA6
:1023F000AE98AF9A80ED97E0FC013197F1F7AF9876
:102400000197F1F708950F931F93A79AA69A87B3A0
:10241000806F87BB88B388BB80E30E94F71100E21E
:102420001EE4C8010197F1F780E30E94F711C8018B
:102430000197F1F780E30E94F711C8010197F1F7C6
:1024400080E20E94F711C8010197F1F7C8010197D6
:10245000F1F788E20E941E118CE00E941E1186E0B6
:102460000E941E1180E80E941E1180E49CE90197E1
:10247000F1F71F910F91089580EC0E941E1180E4E6
:102480009CE90197F1F70895EF92FF920F93DF9384
:10249000CF93CDB7DEB728970FB6F894DEBF0FBE47
:1024A000CDBF9E012F5F3F4F38872F8326E0EF81FE
:1024B000F88511922A95E9F7BE016F5F7F4F4AE0D8
:1024C00050E00E94231600E07E010894E11CF11CFC
:1024D00003C00E9446110F5FF701E00FF11D8081DC
:1024E0008823B9F728960FB6F894DEBF0FBECDBF8C
:1024F000CF91DF910F91FF90EF900895BF92CF920F
:10250000DF92EF92FF920F93DF93CF93CDB7DEB7B9
:1025100028970FB6F894DEBF0FBECDBFB62E9E0132
:102520002F5F3F4F38872F8326E0EF81F885119288
:102530002A95E9F7BE016F5F7F4F4AE050E00E94A5
:10254000231600E06E010894C11CD11C09C00F5F66
:102550008B2D602F0E946E11F70180810E94461121
:102560007601E00EF11CF7018081882381F728961F
:102570000FB6F894DEBF0FBECDBFCF91DF910F91A4
:10258000FF90EF90DF90CF90BF900895BF92CF92D1
:10259000DF92EF92FF920F931F93DF93CF93CDB70C
:1025A000DEB7CA55D0400FB6F894DEBF0FBECDBF20
:1025B000FE01B99682E3DF011D928A95E9F7DE01FB
:1025C0001196E8EDF1E08FE001900D928150E1F776
:1025D000FE01709685E0DF011D928A95E9F7DE0124
:1025E0005596ECEEF1E080E101900D928150E1F71B
:1025F0001DA21EA21FA218A60E94F70784E464E091
:1026000041E00E94080184E464E00E94E20180ED60
:1026100091E00E94BE078E01075D1F4F92E3B92E25
:102620006E010894C11CD11C85E1E82EF12CEC0E42
:10263000FD1EF8018B2D11928A95E9F7C80162E31E
:102640000E949007C801B6010E941A16009729F44B
:1026500084E464E00E9499010AC0C801B7010E94A5
:102660001A16009721F484E464E00E94E201C80194
:102670000E94BE07DECF5058BB27AA270ED048C104
:1026800039D130F03ED120F031F49F3F11F41EF4E7
:102690002EC10EF4E095E7FB24C1E92F4AD180F367
:1026A000BA17620773078407950718F071F49EF54F
:1026B00062C10EF4E0950B2EBA2FA02D0B01B901CB
:1026C00090010C01CA01A0011124FF27591B99F0A8
:1026D000593F50F4503E68F11A16F040A22F232FB4
:1026E000342F4427585FF3CF469537952795A79504
:1026F000F0405395C9F77EF41F16BA0B620B730BAB
:10270000840BBAF09150A1F0FF0FBB1F661F771F1B
:10271000881FC2F70EC0BA0F621F731F841F48F4D0
:10272000879577956795B795F7959E3F08F0B3CF56
:102730009395880F08F09927EE0F97958795089540
:102740000CD0E6C0DED040F0D5D030F021F45F3FB1
:1027500019F0C7C0511110C1CAC0EBD098F399232A
:10276000C9F35523B1F3951B550BBB27AA27621755
:102770007307840738F09F5F5F4F220F331F441F9A
:10278000AA1FA9F333D00E2E3AF0E0E830D09150D2
:102790005040E695001CCAF729D0FE2F27D0660FBF
:1027A000771F881FBB1F261737074807AB07B0E8FE
:1027B00009F0BB0B802DBF01FF2793585F4F2AF014
:1027C0009E3F510568F08DC0D7C05F3FECF3983E47
:1027D000DCF3869577956795B795F7959F5FC9F771
:1027E000880F911D9695879597F90895E1E0660FFA
:1027F000771F881FBB1F621773078407BA0720F073
:10280000621B730B840BBA0BEE1F88F7E0950895DB
:1028100098D088F09F5790F0B92F9927B751A0F022
:10282000D1F0660F771F881F991F1AF0BA95C9F764
:1028300012C0B13081F09FD0B1E008959CC0672FE5
:10284000782F8827B85F39F0B93FCCF38695779514
:102850006795B395D9F73EF49095809570956195FD
:102860007F4F8F4F9F4F0895E89409C097FB3EF428
:1028700090958095709561957F4F8F4F9F4F9923CD
:10288000A9F0F92F96E9BB279395F695879577954B
:102890006795B795F111F8CFFAF4BB0F11F460FF0B
:1028A0001BC06F5F7F4F8F4F9F4F16C0882311F063
:1028B00096E911C0772321F09EE8872F762F05C077
:1028C000662371F096E8862F70E060E02AF09A9512
:1028D000660F771F881FDAF7880F9695879597F907
:1028E000089597F99F6780E870E060E008959FEF92
:1028F00080EC089500240A94161617061806090697
:10290000089500240A941216130614060506089565
:10291000092E0394000C11F4882352F0BB0F40F4ED
:10292000BF2B11F460FF04C06F5F7F4F8F4F9F4F2D
:10293000089557FD9058440F551F59F05F3F71F0AF
:102940004795880F97FB991F61F09F3F79F0879516
:102950000895121613061406551FF2CF4695F1DF9F
:1029600008C0161617061806991FF1CF869571052F
:10297000610508940895E894BB2766277727CB0163
:1029800097F90895ABD008F48FEF08950EF0CAC000
:10299000AECF6894A6CFD5DFC8F39923D1F3C6F3A1
:1029A000DF93CF931F930F93FF92C92FDD278823C7
:1029B0002AF02197660F771F881FDAF720E030E0B2
:1029C00040E85FEB9FE3883920F0803E30F02196AD
:1029D0008F7752DEE4E5F0E003C04EDEE1E8F0E0A0
:1029E000AFD08B01BE01EC01FB2E6F5771097595BD
:1029F000771F880B990B3ADF28E132E741E35FE369
:102A000016D0AF2D9801AE01FF900F911F91CF917D
:102A1000DF9143DE7DCF0BD07BCF6CDF28F071DF01
:102A200018F0952309F05DCF62CF1124A5CF81DF87
:102A3000A0F3959FD1F3950F50E0551F629FF001D1
:102A4000729FBB27F00DB11D639FAA27F00DB11D2A
:102A5000AA1F649F6627B00DA11D661F829F2227B3
:102A6000B00DA11D621F739FB00DA11D621F839F3A
:102A7000A00D611D221F749F3327A00D611D231F10
:102A8000849F600D211D822F762F6A2F11249F575E
:102A900050408AF0E1F088234AF0EE0FFF1FBB1F81
:102AA000661F771F881F91505040A9F79E3F510520
:102AB00070F017CF61CF5F3FECF3983EDCF3869563
:102AC00077956795B795F795E7959F5FC1F7FE2BCB
:102AD000880F911D9695879597F90895990F00088D
:102AE000550FAA0BE0E8FEEF16161706E807F907E0
:102AF000C0F012161306E407F50798F0621B730B7B
:102B0000840B950B39F40A2661F0232B242B252BFB
:102B100021F408950A2609F4A140A6958FEF811D9E
:102B2000811D08959F3F31F0915020F4879577954E
:102B30006795B795880F911D9695879597F9089594
:102B4000DF93CF931F930F93FF92EF92DF927B015E
:102B50008C01689405C0DA2EEF0169DFFE01E8946C
:102B6000A5912591359145915591AEF3EF0195DDF4
:102B7000FE019701A801DA9479F7DF90EF90FF90BA
:102B80000F911F91CF91DF910895991B79E004C0B7
:102B9000991F961708F0961B881F7A95C9F780959C
:102BA0000895AA1BBB1B51E107C0AA1FBB1FA61794
:102BB000B70710F0A61BB70B881F991F5A95A9F7E6
:102BC00080959095BC01CD01089597FB092E0726AD
:102BD0000AD077FD04D0E5DF06D000201AF4709506
:102BE00061957F4F0895F6F7909581959F4F0895D1
:102BF000A1E21A2EAA1BBB1BFD010DC0AA1FBB1F01
:102C0000EE1FFF1FA217B307E407F50720F0A21B72
:102C1000B30BE40BF50B661F771F881F991F1A94DF
:102C200069F760957095809590959B01AC01BD0109
:102C3000CF010895FB01DC018D91019080190110F5
:102C4000D9F3990B0895FB019F01E8944230C4F039
:102C50004532B4F44A3029F497FB1EF490958195DF
:102C60009F4F642F77270E94D115805D8A330CF027
:102C7000895D8193CB010097A1F716F45DE2519332
:102C80001082C9010C944416DC01FC01672F71917C
:102C90007723E1F7329704C07C916D937083629142
:0C2CA000AE17BF07C8F30895F894FFCFEB
:102CAC003A002020202020202020202050424D209F
:102CBC003A200054656D7065726174757265203AC6
:102CCC002000204320004B4559504144205465734B
:102CDC0074696E67004B455950414420446F6E65D2
:102CEC0000504F54454E54494F4D45544552202E9B
:102CFC002E00504F54454E205445535445440037F4
:102D0C00534547205445535445440054657374202F
:102D1C00446F6E650054657374696E672E2E2E00B9
:102D2C00205465737420446F6E65203A290020444A
:102D3C006576656C6F706D656E74204B69742000E0
:102D4C0020205465737420200057656C636F6D658B
:102D5C003A2900456D6265646465644661620031C0
:102D6C002D4C656473207465737400322D42757A32
:102D7C007A6572205465737400332D375365676D13
:102D8C00656E74205465737400342D414443205493
:102D9C0065737400352D454550524F4D2054657365
:102DAC007400362D5254432054657374004C656482
:102DBC007320616E642052656C617920005052530F
:102DCC0053203920746F2072657475726E2E2E2EFE
:102DDC000042555A5A45522054657374696E672ED9
:102DEC002E2E0054657374696E67204F4B2000378C
:102DFC005345472054657374696E672E2E2E200040
:102E0C004144432054657374696E672E2E2E200046
:102E1C0053746172740D0A007475726E206F6E209B
:102E2C006C616D620D0A0000000000007475726E1A
:102E3C00206F6666206C616D620D0A000000000058
:102E4C008025000008000000000101090113011F8A
:102E5C00012B0139014901540162016D017D019180
:102E6C0001A301AF01C00100000000000000000040
:102E7C000000000002000200026400010158028000
:102E8C00250000080000000001012C002B002A0086
:102E9C0040004000290000960000080000000001DE
:022EAC00010023
:00000001FF
